{
  "_format": "hh-sol-artifact-1",
  "contractName": "ERC4626LinearPool",
  "sourceName": "contracts/erc4626/ERC4626LinearPool.sol",
  "abi": [
    {
      "inputs": [
        {
          "internalType": "contract IVault",
          "name": "vault",
          "type": "address"
        },
        {
          "internalType": "string",
          "name": "name",
          "type": "string"
        },
        {
          "internalType": "string",
          "name": "symbol",
          "type": "string"
        },
        {
          "internalType": "contract IERC20",
          "name": "mainToken",
          "type": "address"
        },
        {
          "internalType": "contract IERC4626",
          "name": "wrappedToken",
          "type": "address"
        },
        {
          "internalType": "uint256",
          "name": "upperTarget",
          "type": "uint256"
        },
        {
          "internalType": "uint256",
          "name": "swapFeePercentage",
          "type": "uint256"
        },
        {
          "internalType": "uint256",
          "name": "pauseWindowDuration",
          "type": "uint256"
        },
        {
          "internalType": "uint256",
          "name": "bufferPeriodDuration",
          "type": "uint256"
        },
        {
          "internalType": "address",
          "name": "owner",
          "type": "address"
        }
      ],
      "stateMutability": "nonpayable",
      "type": "constructor"
    },
    {
      "anonymous": false,
      "inputs": [
        {
          "indexed": true,
          "internalType": "address",
          "name": "owner",
          "type": "address"
        },
        {
          "indexed": true,
          "internalType": "address",
          "name": "spender",
          "type": "address"
        },
        {
          "indexed": false,
          "internalType": "uint256",
          "name": "value",
          "type": "uint256"
        }
      ],
      "name": "Approval",
      "type": "event"
    },
    {
      "anonymous": false,
      "inputs": [
        {
          "indexed": false,
          "internalType": "bool",
          "name": "paused",
          "type": "bool"
        }
      ],
      "name": "PausedStateChanged",
      "type": "event"
    },
    {
      "anonymous": false,
      "inputs": [
        {
          "indexed": false,
          "internalType": "bool",
          "name": "enabled",
          "type": "bool"
        }
      ],
      "name": "RecoveryModeStateChanged",
      "type": "event"
    },
    {
      "anonymous": false,
      "inputs": [
        {
          "indexed": false,
          "internalType": "uint256",
          "name": "swapFeePercentage",
          "type": "uint256"
        }
      ],
      "name": "SwapFeePercentageChanged",
      "type": "event"
    },
    {
      "anonymous": false,
      "inputs": [
        {
          "indexed": true,
          "internalType": "contract IERC20",
          "name": "token",
          "type": "address"
        },
        {
          "indexed": false,
          "internalType": "uint256",
          "name": "lowerTarget",
          "type": "uint256"
        },
        {
          "indexed": false,
          "internalType": "uint256",
          "name": "upperTarget",
          "type": "uint256"
        }
      ],
      "name": "TargetsSet",
      "type": "event"
    },
    {
      "anonymous": false,
      "inputs": [
        {
          "indexed": true,
          "internalType": "address",
          "name": "from",
          "type": "address"
        },
        {
          "indexed": true,
          "internalType": "address",
          "name": "to",
          "type": "address"
        },
        {
          "indexed": false,
          "internalType": "uint256",
          "name": "value",
          "type": "uint256"
        }
      ],
      "name": "Transfer",
      "type": "event"
    },
    {
      "inputs": [],
      "name": "DOMAIN_SEPARATOR",
      "outputs": [
        {
          "internalType": "bytes32",
          "name": "",
          "type": "bytes32"
        }
      ],
      "stateMutability": "view",
      "type": "function"
    },
    {
      "inputs": [
        {
          "internalType": "address",
          "name": "owner",
          "type": "address"
        },
        {
          "internalType": "address",
          "name": "spender",
          "type": "address"
        }
      ],
      "name": "allowance",
      "outputs": [
        {
          "internalType": "uint256",
          "name": "",
          "type": "uint256"
        }
      ],
      "stateMutability": "view",
      "type": "function"
    },
    {
      "inputs": [
        {
          "internalType": "address",
          "name": "spender",
          "type": "address"
        },
        {
          "internalType": "uint256",
          "name": "amount",
          "type": "uint256"
        }
      ],
      "name": "approve",
      "outputs": [
        {
          "internalType": "bool",
          "name": "",
          "type": "bool"
        }
      ],
      "stateMutability": "nonpayable",
      "type": "function"
    },
    {
      "inputs": [
        {
          "internalType": "address",
          "name": "account",
          "type": "address"
        }
      ],
      "name": "balanceOf",
      "outputs": [
        {
          "internalType": "uint256",
          "name": "",
          "type": "uint256"
        }
      ],
      "stateMutability": "view",
      "type": "function"
    },
    {
      "inputs": [],
      "name": "decimals",
      "outputs": [
        {
          "internalType": "uint8",
          "name": "",
          "type": "uint8"
        }
      ],
      "stateMutability": "view",
      "type": "function"
    },
    {
      "inputs": [
        {
          "internalType": "address",
          "name": "spender",
          "type": "address"
        },
        {
          "internalType": "uint256",
          "name": "amount",
          "type": "uint256"
        }
      ],
      "name": "decreaseAllowance",
      "outputs": [
        {
          "internalType": "bool",
          "name": "",
          "type": "bool"
        }
      ],
      "stateMutability": "nonpayable",
      "type": "function"
    },
    {
      "inputs": [],
      "name": "disableRecoveryMode",
      "outputs": [],
      "stateMutability": "nonpayable",
      "type": "function"
    },
    {
      "inputs": [],
      "name": "enableRecoveryMode",
      "outputs": [],
      "stateMutability": "nonpayable",
      "type": "function"
    },
    {
      "inputs": [
        {
          "internalType": "bytes4",
          "name": "selector",
          "type": "bytes4"
        }
      ],
      "name": "getActionId",
      "outputs": [
        {
          "internalType": "bytes32",
          "name": "",
          "type": "bytes32"
        }
      ],
      "stateMutability": "view",
      "type": "function"
    },
    {
      "inputs": [],
      "name": "getAuthorizer",
      "outputs": [
        {
          "internalType": "contract IAuthorizer",
          "name": "",
          "type": "address"
        }
      ],
      "stateMutability": "view",
      "type": "function"
    },
    {
      "inputs": [],
      "name": "getBptIndex",
      "outputs": [
        {
          "internalType": "uint256",
          "name": "",
          "type": "uint256"
        }
      ],
      "stateMutability": "pure",
      "type": "function"
    },
    {
      "inputs": [],
      "name": "getDomainSeparator",
      "outputs": [
        {
          "internalType": "bytes32",
          "name": "",
          "type": "bytes32"
        }
      ],
      "stateMutability": "view",
      "type": "function"
    },
    {
      "inputs": [],
      "name": "getMainIndex",
      "outputs": [
        {
          "internalType": "uint256",
          "name": "",
          "type": "uint256"
        }
      ],
      "stateMutability": "view",
      "type": "function"
    },
    {
      "inputs": [],
      "name": "getMainToken",
      "outputs": [
        {
          "internalType": "contract IERC20",
          "name": "",
          "type": "address"
        }
      ],
      "stateMutability": "view",
      "type": "function"
    },
    {
      "inputs": [
        {
          "internalType": "address",
          "name": "account",
          "type": "address"
        }
      ],
      "name": "getNextNonce",
      "outputs": [
        {
          "internalType": "uint256",
          "name": "",
          "type": "uint256"
        }
      ],
      "stateMutability": "view",
      "type": "function"
    },
    {
      "inputs": [],
      "name": "getOwner",
      "outputs": [
        {
          "internalType": "address",
          "name": "",
          "type": "address"
        }
      ],
      "stateMutability": "view",
      "type": "function"
    },
    {
      "inputs": [],
      "name": "getPausedState",
      "outputs": [
        {
          "internalType": "bool",
          "name": "paused",
          "type": "bool"
        },
        {
          "internalType": "uint256",
          "name": "pauseWindowEndTime",
          "type": "uint256"
        },
        {
          "internalType": "uint256",
          "name": "bufferPeriodEndTime",
          "type": "uint256"
        }
      ],
      "stateMutability": "view",
      "type": "function"
    },
    {
      "inputs": [],
      "name": "getPoolId",
      "outputs": [
        {
          "internalType": "bytes32",
          "name": "",
          "type": "bytes32"
        }
      ],
      "stateMutability": "view",
      "type": "function"
    },
    {
      "inputs": [],
      "name": "getProtocolFeesCollector",
      "outputs": [
        {
          "internalType": "contract IProtocolFeesCollector",
          "name": "",
          "type": "address"
        }
      ],
      "stateMutability": "view",
      "type": "function"
    },
    {
      "inputs": [],
      "name": "getRate",
      "outputs": [
        {
          "internalType": "uint256",
          "name": "",
          "type": "uint256"
        }
      ],
      "stateMutability": "view",
      "type": "function"
    },
    {
      "inputs": [],
      "name": "getScalingFactors",
      "outputs": [
        {
          "internalType": "uint256[]",
          "name": "",
          "type": "uint256[]"
        }
      ],
      "stateMutability": "view",
      "type": "function"
    },
    {
      "inputs": [],
      "name": "getSwapFeePercentage",
      "outputs": [
        {
          "internalType": "uint256",
          "name": "",
          "type": "uint256"
        }
      ],
      "stateMutability": "view",
      "type": "function"
    },
    {
      "inputs": [],
      "name": "getTargets",
      "outputs": [
        {
          "internalType": "uint256",
          "name": "lowerTarget",
          "type": "uint256"
        },
        {
          "internalType": "uint256",
          "name": "upperTarget",
          "type": "uint256"
        }
      ],
      "stateMutability": "view",
      "type": "function"
    },
    {
      "inputs": [],
      "name": "getVault",
      "outputs": [
        {
          "internalType": "contract IVault",
          "name": "",
          "type": "address"
        }
      ],
      "stateMutability": "view",
      "type": "function"
    },
    {
      "inputs": [],
      "name": "getVirtualSupply",
      "outputs": [
        {
          "internalType": "uint256",
          "name": "",
          "type": "uint256"
        }
      ],
      "stateMutability": "view",
      "type": "function"
    },
    {
      "inputs": [],
      "name": "getWrappedIndex",
      "outputs": [
        {
          "internalType": "uint256",
          "name": "",
          "type": "uint256"
        }
      ],
      "stateMutability": "view",
      "type": "function"
    },
    {
      "inputs": [],
      "name": "getWrappedToken",
      "outputs": [
        {
          "internalType": "contract IERC20",
          "name": "",
          "type": "address"
        }
      ],
      "stateMutability": "view",
      "type": "function"
    },
    {
      "inputs": [],
      "name": "getWrappedTokenRate",
      "outputs": [
        {
          "internalType": "uint256",
          "name": "",
          "type": "uint256"
        }
      ],
      "stateMutability": "view",
      "type": "function"
    },
    {
      "inputs": [],
      "name": "inRecoveryMode",
      "outputs": [
        {
          "internalType": "bool",
          "name": "",
          "type": "bool"
        }
      ],
      "stateMutability": "view",
      "type": "function"
    },
    {
      "inputs": [
        {
          "internalType": "address",
          "name": "spender",
          "type": "address"
        },
        {
          "internalType": "uint256",
          "name": "addedValue",
          "type": "uint256"
        }
      ],
      "name": "increaseAllowance",
      "outputs": [
        {
          "internalType": "bool",
          "name": "",
          "type": "bool"
        }
      ],
      "stateMutability": "nonpayable",
      "type": "function"
    },
    {
      "inputs": [],
      "name": "initialize",
      "outputs": [],
      "stateMutability": "nonpayable",
      "type": "function"
    },
    {
      "inputs": [],
      "name": "name",
      "outputs": [
        {
          "internalType": "string",
          "name": "",
          "type": "string"
        }
      ],
      "stateMutability": "view",
      "type": "function"
    },
    {
      "inputs": [
        {
          "internalType": "address",
          "name": "owner",
          "type": "address"
        }
      ],
      "name": "nonces",
      "outputs": [
        {
          "internalType": "uint256",
          "name": "",
          "type": "uint256"
        }
      ],
      "stateMutability": "view",
      "type": "function"
    },
    {
      "inputs": [
        {
          "internalType": "bytes32",
          "name": "poolId",
          "type": "bytes32"
        },
        {
          "internalType": "address",
          "name": "sender",
          "type": "address"
        },
        {
          "internalType": "address",
          "name": "",
          "type": "address"
        },
        {
          "internalType": "uint256[]",
          "name": "balances",
          "type": "uint256[]"
        },
        {
          "internalType": "uint256",
          "name": "",
          "type": "uint256"
        },
        {
          "internalType": "uint256",
          "name": "",
          "type": "uint256"
        },
        {
          "internalType": "bytes",
          "name": "userData",
          "type": "bytes"
        }
      ],
      "name": "onExitPool",
      "outputs": [
        {
          "internalType": "uint256[]",
          "name": "amountsOut",
          "type": "uint256[]"
        },
        {
          "internalType": "uint256[]",
          "name": "dueProtocolFees",
          "type": "uint256[]"
        }
      ],
      "stateMutability": "nonpayable",
      "type": "function"
    },
    {
      "inputs": [
        {
          "internalType": "bytes32",
          "name": "poolId",
          "type": "bytes32"
        },
        {
          "internalType": "address",
          "name": "sender",
          "type": "address"
        },
        {
          "internalType": "address",
          "name": "recipient",
          "type": "address"
        },
        {
          "internalType": "uint256[]",
          "name": "balances",
          "type": "uint256[]"
        },
        {
          "internalType": "uint256",
          "name": "",
          "type": "uint256"
        },
        {
          "internalType": "uint256",
          "name": "",
          "type": "uint256"
        },
        {
          "internalType": "bytes",
          "name": "userData",
          "type": "bytes"
        }
      ],
      "name": "onJoinPool",
      "outputs": [
        {
          "internalType": "uint256[]",
          "name": "amountsIn",
          "type": "uint256[]"
        },
        {
          "internalType": "uint256[]",
          "name": "dueProtocolFees",
          "type": "uint256[]"
        }
      ],
      "stateMutability": "nonpayable",
      "type": "function"
    },
    {
      "inputs": [
        {
          "components": [
            {
              "internalType": "enum IVault.SwapKind",
              "name": "kind",
              "type": "uint8"
            },
            {
              "internalType": "contract IERC20",
              "name": "tokenIn",
              "type": "address"
            },
            {
              "internalType": "contract IERC20",
              "name": "tokenOut",
              "type": "address"
            },
            {
              "internalType": "uint256",
              "name": "amount",
              "type": "uint256"
            },
            {
              "internalType": "bytes32",
              "name": "poolId",
              "type": "bytes32"
            },
            {
              "internalType": "uint256",
              "name": "lastChangeBlock",
              "type": "uint256"
            },
            {
              "internalType": "address",
              "name": "from",
              "type": "address"
            },
            {
              "internalType": "address",
              "name": "to",
              "type": "address"
            },
            {
              "internalType": "bytes",
              "name": "userData",
              "type": "bytes"
            }
          ],
          "internalType": "struct IPoolSwapStructs.SwapRequest",
          "name": "request",
          "type": "tuple"
        },
        {
          "internalType": "uint256[]",
          "name": "balances",
          "type": "uint256[]"
        },
        {
          "internalType": "uint256",
          "name": "indexIn",
          "type": "uint256"
        },
        {
          "internalType": "uint256",
          "name": "indexOut",
          "type": "uint256"
        }
      ],
      "name": "onSwap",
      "outputs": [
        {
          "internalType": "uint256",
          "name": "",
          "type": "uint256"
        }
      ],
      "stateMutability": "nonpayable",
      "type": "function"
    },
    {
      "inputs": [
        {
          "components": [
            {
              "internalType": "enum IVault.SwapKind",
              "name": "kind",
              "type": "uint8"
            },
            {
              "internalType": "contract IERC20",
              "name": "tokenIn",
              "type": "address"
            },
            {
              "internalType": "contract IERC20",
              "name": "tokenOut",
              "type": "address"
            },
            {
              "internalType": "uint256",
              "name": "amount",
              "type": "uint256"
            },
            {
              "internalType": "bytes32",
              "name": "poolId",
              "type": "bytes32"
            },
            {
              "internalType": "uint256",
              "name": "lastChangeBlock",
              "type": "uint256"
            },
            {
              "internalType": "address",
              "name": "from",
              "type": "address"
            },
            {
              "internalType": "address",
              "name": "to",
              "type": "address"
            },
            {
              "internalType": "bytes",
              "name": "userData",
              "type": "bytes"
            }
          ],
          "internalType": "struct IPoolSwapStructs.SwapRequest",
          "name": "request",
          "type": "tuple"
        },
        {
          "internalType": "uint256",
          "name": "balanceTokenIn",
          "type": "uint256"
        },
        {
          "internalType": "uint256",
          "name": "balanceTokenOut",
          "type": "uint256"
        }
      ],
      "name": "onSwap",
      "outputs": [
        {
          "internalType": "uint256",
          "name": "",
          "type": "uint256"
        }
      ],
      "stateMutability": "nonpayable",
      "type": "function"
    },
    {
      "inputs": [],
      "name": "pause",
      "outputs": [],
      "stateMutability": "nonpayable",
      "type": "function"
    },
    {
      "inputs": [
        {
          "internalType": "address",
          "name": "owner",
          "type": "address"
        },
        {
          "internalType": "address",
          "name": "spender",
          "type": "address"
        },
        {
          "internalType": "uint256",
          "name": "value",
          "type": "uint256"
        },
        {
          "internalType": "uint256",
          "name": "deadline",
          "type": "uint256"
        },
        {
          "internalType": "uint8",
          "name": "v",
          "type": "uint8"
        },
        {
          "internalType": "bytes32",
          "name": "r",
          "type": "bytes32"
        },
        {
          "internalType": "bytes32",
          "name": "s",
          "type": "bytes32"
        }
      ],
      "name": "permit",
      "outputs": [],
      "stateMutability": "nonpayable",
      "type": "function"
    },
    {
      "inputs": [
        {
          "internalType": "bytes32",
          "name": "",
          "type": "bytes32"
        },
        {
          "internalType": "address",
          "name": "sender",
          "type": "address"
        },
        {
          "internalType": "address",
          "name": "",
          "type": "address"
        },
        {
          "internalType": "uint256[]",
          "name": "balances",
          "type": "uint256[]"
        },
        {
          "internalType": "uint256",
          "name": "",
          "type": "uint256"
        },
        {
          "internalType": "uint256",
          "name": "",
          "type": "uint256"
        },
        {
          "internalType": "bytes",
          "name": "userData",
          "type": "bytes"
        }
      ],
      "name": "queryExit",
      "outputs": [
        {
          "internalType": "uint256",
          "name": "bptIn",
          "type": "uint256"
        },
        {
          "internalType": "uint256[]",
          "name": "amountsOut",
          "type": "uint256[]"
        }
      ],
      "stateMutability": "view",
      "type": "function"
    },
    {
      "inputs": [
        {
          "internalType": "bytes32",
          "name": "",
          "type": "bytes32"
        },
        {
          "internalType": "address",
          "name": "sender",
          "type": "address"
        },
        {
          "internalType": "address",
          "name": "",
          "type": "address"
        },
        {
          "internalType": "uint256[]",
          "name": "balances",
          "type": "uint256[]"
        },
        {
          "internalType": "uint256",
          "name": "",
          "type": "uint256"
        },
        {
          "internalType": "uint256",
          "name": "",
          "type": "uint256"
        },
        {
          "internalType": "bytes",
          "name": "userData",
          "type": "bytes"
        }
      ],
      "name": "queryJoin",
      "outputs": [
        {
          "internalType": "uint256",
          "name": "bptOut",
          "type": "uint256"
        },
        {
          "internalType": "uint256[]",
          "name": "amountsIn",
          "type": "uint256[]"
        }
      ],
      "stateMutability": "view",
      "type": "function"
    },
    {
      "inputs": [
        {
          "internalType": "uint256",
          "name": "swapFeePercentage",
          "type": "uint256"
        }
      ],
      "name": "setSwapFeePercentage",
      "outputs": [],
      "stateMutability": "nonpayable",
      "type": "function"
    },
    {
      "inputs": [
        {
          "internalType": "uint256",
          "name": "newLowerTarget",
          "type": "uint256"
        },
        {
          "internalType": "uint256",
          "name": "newUpperTarget",
          "type": "uint256"
        }
      ],
      "name": "setTargets",
      "outputs": [],
      "stateMutability": "nonpayable",
      "type": "function"
    },
    {
      "inputs": [],
      "name": "symbol",
      "outputs": [
        {
          "internalType": "string",
          "name": "",
          "type": "string"
        }
      ],
      "stateMutability": "view",
      "type": "function"
    },
    {
      "inputs": [],
      "name": "totalSupply",
      "outputs": [
        {
          "internalType": "uint256",
          "name": "",
          "type": "uint256"
        }
      ],
      "stateMutability": "view",
      "type": "function"
    },
    {
      "inputs": [
        {
          "internalType": "address",
          "name": "recipient",
          "type": "address"
        },
        {
          "internalType": "uint256",
          "name": "amount",
          "type": "uint256"
        }
      ],
      "name": "transfer",
      "outputs": [
        {
          "internalType": "bool",
          "name": "",
          "type": "bool"
        }
      ],
      "stateMutability": "nonpayable",
      "type": "function"
    },
    {
      "inputs": [
        {
          "internalType": "address",
          "name": "sender",
          "type": "address"
        },
        {
          "internalType": "address",
          "name": "recipient",
          "type": "address"
        },
        {
          "internalType": "uint256",
          "name": "amount",
          "type": "uint256"
        }
      ],
      "name": "transferFrom",
      "outputs": [
        {
          "internalType": "bool",
          "name": "",
          "type": "bool"
        }
      ],
      "stateMutability": "nonpayable",
      "type": "function"
    },
    {
      "inputs": [],
      "name": "unpause",
      "outputs": [],
      "stateMutability": "nonpayable",
      "type": "function"
    }
  ],
  "bytecode": "0x6102a06040523480156200001257600080fd5b50604051620055b5380380620055b5833981016040819052620000359162000d6e565b898989898989600260405190808252806020026020018201604052801562000067578160200160208202803683370190505b508a8a8a8a8a62000092816000620000808c8c62000456565b896200050760201b6200139f1760201c565b8b8b868686828286868a85336001600160a01b031660001b8480604051806040016040528060018152602001603160f81b81525087878160039080519060200190620000e092919062000be6565b508051620000f690600490602084019062000be6565b50506005805460ff19166012179055508151602092830120608052805191012060a052507f8b73c3c69bb8fe3d512ecc4cf759cc79239f7b179b0ffacaa9a75d522b39400f60c05260e0526001600160601b0319606091821b81166101005291901b166101205250620001759050630163f500831115610194620006d5565b620001896276a700821115610195620006d5565b4290910161014081905201610160526101808690526040805163d2946c2b60e01b815290516001600160a01b0389169163d2946c2b916004808301926020929190829003018186803b158015620001df57600080fd5b505afa158015620001f4573d6000803e3d6000fd5b505050506040513d601f19601f820116820180604052508101906200021a919062000d4f565b6001600160a01b03166101a0816001600160a01b031660601b8152505050505050505050876001600160a01b03166101c0816001600160a01b031660601b81525050866001600160a01b03166101e0816001600160a01b031660601b81525050866001600160a01b0316886001600160a01b0316106200029c5760026200029f565b60015b60ff16610200526001600160a01b0380881690891610620002c2576001620002c5565b60025b60ff1661022052620002d788620006ea565b61024052620002e687620006ea565b610260526000620002f989828962000796565b620003048562000890565b5050505050505050505050506000866001600160a01b031663313ce5676040518163ffffffff1660e01b815260040160206040518083038186803b1580156200034c57600080fd5b505afa15801562000361573d6000803e3d6000fd5b505050506040513d601f19601f8201168201806040525081019062000387919062000e4d565b60ff1690506000886001600160a01b031663313ce5676040518163ffffffff1660e01b815260040160206040518083038186803b158015620003c857600080fd5b505afa158015620003dd573d6000803e3d6000fd5b505050506040513d601f19601f8201168201806040525081019062000403919062000e4d565b60ff16905060006200043b82620004276012866200091f60201b620015541760201c565b6200093a60201b620015661790919060201c565b600a0a610280525062000f4c9b505050505050505050505050565b60408051600280825260608281019093526001600160a01b0384811690861610918391816020016020820280368337019050509050816200049857836200049a565b845b81600081518110620004a857fe5b60200260200101906001600160a01b031690816001600160a01b03168152505081620004d55784620004d7565b835b81600181518110620004e557fe5b6001600160a01b03909216602092830291909101909101529150505b92915050565b60006200051f836200095260201b6200157c1760201c565b606083516001016001600160401b03811180156200053c57600080fd5b5060405190808252806020026020018201604052801562000567578160200160208202803683370190505b50905030816000815181106200057957fe5b60200260200101906001600160a01b031690816001600160a01b03168152505060005b8451811015620005ec57848181518110620005b357fe5b6020026020010151828260010181518110620005cb57fe5b6001600160a01b03909216602092830291909101909101526001016200059c565b50606083516001016001600160401b03811180156200060a57600080fd5b5060405190808252806020026020018201604052801562000635578160200160208202803683370190505b5090506000816000815181106200064857fe5b60200260200101906001600160a01b031690816001600160a01b03168152505060005b8451811015620006bb578481815181106200068257fe5b60200260200101518282600101815181106200069a57fe5b6001600160a01b03909216602092830291909101909101526001016200066b565b50620006ca878784846200095e565b979650505050505050565b81620006e657620006e68162000a58565b5050565b600080826001600160a01b031663313ce5676040518163ffffffff1660e01b815260040160206040518083038186803b1580156200072757600080fd5b505afa1580156200073c573d6000803e3d6000fd5b505050506040513d601f19601f8201168201806040525081019062000762919062000e4d565b60ff1690506000620007816012836200093a60201b620015661760201c565b600a0a670de0b6b3a764000002949350505050565b620007a78183111561014c620006d5565b620007c46b0de0b6b39983494c589c000082111561014d620006d5565b620007de670de0b6b3a7640000825b0615610161620006d5565b620007f2670de0b6b3a764000083620007d3565b62000841670de0b6b3a76400008204604060206200082b670de0b6b3a7640000876008549190046020806200158a62000a6d821b17811c565b62000a6d60201b6200158a17909392919060201c565b6008556040516001600160a01b038416907fd0e27a0d0c2cb09280fa5e4487315455b32afcdcf012dc35b6ef2a0e3c4d12809062000883908590859062000f1c565b60405180910390a2505050565b620008a564e8d4a5100082101560cb620006d5565b620008bd67016345785d8a000082111560ca620006d5565b620008df8160c0603f60085462000a6d60201b6200158a17909392919060201c565b6008556040517fa9ba3ffe0b6c366b81232caab38605a0699ad5398d6cce76f91ee809e322dafc906200091490839062000f13565b60405180910390a150565b6000828201620009338482101583620006d5565b9392505050565b60006200094c838311156001620006d5565b50900390565b80620006e68162000a92565b600080856001600160a01b03166309b2760f866040518263ffffffff1660e01b81526004016200098f919062000efe565b602060405180830381600087803b158015620009aa57600080fd5b505af1158015620009bf573d6000803e3d6000fd5b505050506040513d601f19601f82011682018060405250810190620009e5919062000d36565b604051633354e3e960e11b81529091506001600160a01b038716906366a9c7d29062000a1a9084908890889060040162000e70565b600060405180830381600087803b15801562000a3557600080fd5b505af115801562000a4a573d6000803e3d6000fd5b509298975050505050505050565b62000a6a816210905360ea1b62000b1e565b50565b600062000a7c84848462000b7f565b506001901b60001901811b1992909216911b1790565b60028151101562000aa35762000a6a565b60008160008151811062000ab357fe5b602002602001015190506000600190505b825181101562000b1957600083828151811062000add57fe5b6020026020010151905062000b0e816001600160a01b0316846001600160a01b0316106065620006d560201b60201c565b915060010162000ac4565b505050565b62461bcd60e51b600090815260206004526007602452600a808404818106603090810160081b958390069590950190829004918206850160101b01602363ffffff0060e086901c160160181b0190930160c81b60445260e882901c90606490fd5b62000b9061010083106064620006d5565b62000bc96001821015801562000bc1575062000bbd60ff846101000362000bda60201b620015ad1760201c565b8211155b6064620006d5565b62000b1983821c156101b4620006d5565b80820390821102900390565b828054600181600116156101000203166002900490600052602060002090601f016020900481019282601f1062000c2957805160ff191683800117855562000c59565b8280016001018555821562000c59579182015b8281111562000c5957825182559160200191906001019062000c3c565b5062000c6792915062000c6b565b5090565b5b8082111562000c67576000815560010162000c6c565b8051620005018162000f36565b600082601f83011262000ca0578081fd5b81516001600160401b038082111562000cb7578283fd5b6040516020601f8401601f191682018101838111838210171562000cd9578586fd5b8060405250819450838252868185880101111562000cf657600080fd5b600092505b8383101562000d1a578583018101518284018201529182019162000cfb565b8383111562000d2c5760008185840101525b5050505092915050565b60006020828403121562000d48578081fd5b5051919050565b60006020828403121562000d61578081fd5b8151620009338162000f36565b6000806000806000806000806000806101408b8d03121562000d8e578586fd5b62000d9a8c8c62000c82565b60208c0151909a506001600160401b038082111562000db7578788fd5b62000dc58e838f0162000c8f565b9a5060408d015191508082111562000ddb578788fd5b5062000dea8d828e0162000c8f565b98505062000dfc8c60608d0162000c82565b965062000e0d8c60808d0162000c82565b955060a08b0151945060c08b0151935060e08b015192506101008b0151915062000e3c8c6101208d0162000c82565b90509295989b9194979a5092959850565b60006020828403121562000e5f578081fd5b815160ff8116811462000933578182fd5b60006060820185835260206060818501528186518084526080860191508288019350845b8181101562000ebc5762000ea9855162000f2a565b8352938301939183019160010162000e94565b505084810360408601528551808252908201925081860190845b8181101562000a4a5762000eeb835162000f2a565b8552938301939183019160010162000ed6565b602081016003831062000f0d57fe5b91905290565b90815260200190565b918252602082015260400190565b6001600160a01b031690565b6001600160a01b038116811462000a6a57600080fd5b60805160a05160c05160e0516101005160601c6101205160601c6101405161016051610180516101a05160601c6101c05160601c6101e05160601c61020051610220516102405161026051610280516144da620010db600039806118755250806107e052508061077c52806128ef52508061070452806108085280610bd45280612d6a5280612ef3528061302b528061313652806132b352806133eb52508061079e52806109a05280610b9a5280612d365280612e785280612ebf5280612fb55280612ff75280613102528061323d528061327f528061337552806133b75250806113735280612658528061272452806129155280612ceb5280612e0452806130b852806131c95250806109c452806110695280611a2d5280611acc528061260f52806126db52806128b45280612cac5280612dae5280612f415280613079528061317a528061330152508061114752508061092d5250806117aa525080611786525080610f54525080610f30525080610ee052508061234c52508061238e52508061236d52506144da6000f3fe608060405234801561001057600080fd5b50600436106103205760003560e01c80638129fc1c116101a7578063a9059cbb116100ee578063d5c096c411610097578063ed24911d11610071578063ed24911d146105dd578063f174e241146105e5578063f5431aa8146105ed57610320565b8063d5c096c4146105af578063dd62ed3e146105c2578063de82cd34146105d557610320565b8063b7b814fc116100c8578063b7b814fc1461058c578063d2946c2b14610594578063d505accf1461059c57610320565b8063a9059cbb14610569578063aaabadc51461057c578063b35056b81461058457610320565b80638d928af8116101505780639d2c110c1161012a5780639d2c110c146105305780639f11080e14610543578063a457c2d71461055657610320565b80638d928af81461050d57806390193b7c1461051557806395d89b411461052857610320565b8063851c1bb311610181578063851c1bb3146104f257806387ec681714610454578063893d20e81461050557610320565b80638129fc1c146104da57806382687a56146104e25780638456cb59146104ea57610320565b8063395093511161026b5780636028bfd41161021457806370a08231116101ee57806370a082311461049357806374f3b009146104a65780637ecebe00146104c757610320565b80636028bfd41461045457806363fe3b5614610475578063679aefce1461048b57610320565b80634de046d5116102455780634de046d51461042f57806354a844ba1461044457806355c676281461044c57610320565b8063395093511461040c5780633f4ba83a1461041f5780634d64cd741461042757610320565b80631dd746ea116102cd5780633644e515116102a75780633644e515146103e757806338e9922e146103ef57806338fff2d01461040457610320565b80631dd746ea146103aa57806323b872dd146103bf578063313ce567146103d257610320565b806316b8d6ff116102fe57806316b8d6ff1461038357806318160ddd1461038b5780631c0de0511461039357610320565b806301ec954a1461032557806306fdde031461034e578063095ea7b314610363575b600080fd5b610338610333366004613eb2565b6105f5565b60405161034591906141a1565b60405180910390f35b610356610655565b60405161034591906143e5565b610376610371366004613c84565b6106eb565b604051610345919061417e565b610338610702565b610338610726565b61039b61072c565b60405161034593929190614189565b6103b2610755565b6040516103459190614146565b6103766103cd366004613bd4565b610863565b6103da6108d9565b604051610345919061441f565b6103386108e2565b6104026103fd366004613f6f565b6108f1565b005b61033861092b565b61037661041a366004613c84565b61094f565b61040261098a565b61033861099e565b6104376109c2565b6040516103459190614132565b6104026109e6565b610338610a3a565b610467610462366004613db3565b610a4d565b6040516103459291906143f8565b61047d610a6b565b604051610345929190614411565b610338610aa9565b6103386104a1366004613b80565b610c3e565b6104b96104b4366004613db3565b610c5d565b604051610345929190614159565b6103386104d5366004613b80565b610d1f565b610402610d2a565b610338610ec5565b610402610eca565b610338610500366004613e56565b610edc565b610437610f2e565b610437610f52565b610338610523366004613b80565b610f76565b610356610f91565b61033861053e366004613f23565b610ff2565b610402610551366004613f87565b61102b565b610376610564366004613c84565b611095565b610376610577366004613c84565b6110d3565b6104376110e0565b6103766110ea565b6104026110fb565b610437611145565b6104026105aa366004613c14565b611169565b6104b96105bd366004613db3565b6111ea565b6103386105d0366004613b9c565b611281565b6103386112be565b610338611367565b610437611371565b610338611395565b60008460800151610622610607610f52565b6001600160a01b0316336001600160a01b03161460cd6115b9565b61063761062d61092b565b82146101f46115b9565b61063f6115c7565b61064b868686866115da565b9695505050505050565b60038054604080516020601f60026000196101006001881615020190951694909404938401819004810282018101909252828152606093909290918301828280156106e15780601f106106b6576101008083540402835291602001916106e1565b820191906000526020600020905b8154815290600101906020018083116106c457829003601f168201915b5050505050905090565b60006106f83384846116ff565b5060015b92915050565b7f000000000000000000000000000000000000000000000000000000000000000090565b60025490565b6000806000610739611767565b159250610744611784565b915061074e6117a8565b9050909192565b604080516003808252608082019092526060918291906020820183803683370190505090507f0000000000000000000000000000000000000000000000000000000000000000817f0000000000000000000000000000000000000000000000000000000000000000815181106107c757fe5b6020026020010181815250506108056107de6117cc565b7f0000000000000000000000000000000000000000000000000000000000000000906118a7565b817f00000000000000000000000000000000000000000000000000000000000000008151811061083157fe5b602002602001018181525050670de0b6b3a76400008160008151811061085357fe5b6020908102919091010152905090565b6000806108708533611281565b9050610894336001600160a01b038716148061088c5750838210155b61019e6115b9565b61089f8585856118df565b336001600160a01b038616148015906108ba57506000198114155b156108cc576108cc85338584036116ff565b60019150505b9392505050565b60055460ff1690565b60006108ec611367565b905090565b6108f96119bf565b600080610904610a6b565b9150915061091d6109158383611a08565b61014f6115b9565b61092683611b0f565b505050565b7f000000000000000000000000000000000000000000000000000000000000000090565b3360008181526001602090815260408083206001600160a01b038716845290915281205490916106f89185906109859086611554565b6116ff565b6109926119bf565b61099c6000611b87565b565b7f000000000000000000000000000000000000000000000000000000000000000090565b7f000000000000000000000000000000000000000000000000000000000000000090565b6109ee6119bf565b6109f6611c18565b610a006001611c2c565b7feff3d4d215b42bf0960be9c6d5e05c22cba4df6627a3a523e2acee733b5854c86001604051610a30919061417e565b60405180910390a1565b6008546000906108ec9060c0603f611c6e565b60006060610a5f888785611c7d611c94565b97509795505050505050565b6008546000908190670de0b6b3a7640000610a8882602080611c6e565b029250670de0b6b3a7640000610aa18260406020611c6e565b029150509091565b600080610ab461092b565b90506060610ac0610f52565b6001600160a01b031663f94d4668836040518263ffffffff1660e01b8152600401610aeb91906141a1565b60006040518083038186803b158015610b0357600080fd5b505afa158015610b17573d6000803e3d6000fd5b505050506040513d6000823e601f3d908101601f19168201604052610b3f9190810190613caf565b50915050610b5481610b4f610755565b611dfb565b600080610b5f610a6b565b91509150610b6b613921565b6040518060600160405280610b7e610a3a565b81526020018481526020018381525090506000610c0a610bd1867f000000000000000000000000000000000000000000000000000000000000000081518110610bc357fe5b602002602001015184611e64565b867f000000000000000000000000000000000000000000000000000000000000000081518110610bfd57fe5b6020026020010151611ec5565b9050610c33610c2c86600081518110610c1f57fe5b6020026020010151611ed1565b8290611ee5565b965050505050505090565b6001600160a01b0381166000908152602081905260409020545b919050565b60608088610c6c610607610f52565b610c7761062d61092b565b6000610c8285611f3c565b15610caa57610c8f611f6b565b610ca188610c9b610726565b87611f7e565b94509050610cc2565b610cb26115c7565b610cbd8a8987611c7d565b945090505b610ccc8a82612074565b835167ffffffffffffffff81118015610ce457600080fd5b50604051908082528060200260200182016040528015610d0e578160200160208202803683370190505b509250505097509795505050505050565b60006106fc82610f76565b6000610d3461092b565b90506060610d40610f52565b6001600160a01b031663f94d4668836040518263ffffffff1660e01b8152600401610d6b91906141a1565b60006040518083038186803b158015610d8357600080fd5b505afa158015610d97573d6000803e3d6000fd5b505050506040513d6000823e601f3d908101601f19168201604052610dbf9190810190613caf565b505060408051600380825260808201909252919250606091906020820183803683370190505090506dffffffffffffffffffffffffffff81600081518110610e0357fe5b602002602001018181525050610e17613942565b6040518060800160405280610e2b8561207e565b8152602001838152602001604051806020016040528060008152508152602001600015158152509050610e5c610f52565b6001600160a01b031663b95cac28853030856040518563ffffffff1660e01b8152600401610e8d94939291906141c9565b600060405180830381600087803b158015610ea757600080fd5b505af1158015610ebb573d6000803e3d6000fd5b5050505050505050565b600090565b610ed26119bf565b61099c6001611b87565b60007f000000000000000000000000000000000000000000000000000000000000000082604051602001610f119291906140bc565b604051602081830303815290604052805190602001209050919050565b7f000000000000000000000000000000000000000000000000000000000000000090565b7f000000000000000000000000000000000000000000000000000000000000000090565b6001600160a01b031660009081526006602052604090205490565b60048054604080516020601f60026000196101006001881615020190951694909404938401819004810282018101909252828152606093909290918301828280156106e15780601f106106b6576101008083540402835291602001916106e1565b60008360800151611004610607610f52565b61100f61062d61092b565b6110176115c7565b611022858585612081565b95945050505050565b6110336119bf565b60008061103e610a6b565b9150915061104f6109158383611a08565b61106461105c8585611a08565b6101576115b9565b61108f7f0000000000000000000000000000000000000000000000000000000000000000858561208e565b50505050565b6000806110a23385611281565b90508083106110bc576110b7338560006116ff565b6110c9565b6110c933858584036116ff565b5060019392505050565b60006106f83384846118df565b60006108ec612164565b6008546000906108ec9060ff6121de565b6111036119bf565b61110b611f6b565b6111156000611c2c565b7feff3d4d215b42bf0960be9c6d5e05c22cba4df6627a3a523e2acee733b5854c86000604051610a30919061417e565b7f000000000000000000000000000000000000000000000000000000000000000090565b60007f6e71edae12b1b97f4d1f60370fef10105fa2faae0126114a169c64845d6126c98888886111988c610f76565b896040516020016111ae969594939291906142b6565b6040516020818303038152906040528051906020012090506111df88826111d68787876121e5565b886101f8612224565b610ebb8888886116ff565b606080886111f9610607610f52565b61120461062d61092b565b600061120e6115c7565b611216610726565b611268576112258a8a8761227b565b9450905061123e611234610ec5565b82101560cc6115b9565b611250600061124b610ec5565b612313565b6112638961125c610ec5565b8303612313565b610ccc565b6112738a8987611c7d565b94509050610ccc8982612313565b600061128b610f52565b6001600160a01b0316826001600160a01b031614156112ad57506000196106fc565b6112b7838361231d565b90506106fc565b60008060006112cb610f52565b6001600160a01b031663b05f8e486112e161092b565b306040518363ffffffff1660e01b81526004016112ff92919061439c565b60806040518083038186803b15801561131757600080fd5b505afa15801561132b573d6000803e3d6000fd5b505050506040513d601f19601f8201168201806040525081019061134f9190613fa8565b505091509150611360818301611ed1565b9250505090565b60006108ec612348565b7f000000000000000000000000000000000000000000000000000000000000000090565b60006108ec6117cc565b60006113aa8361157c565b6060835160010167ffffffffffffffff811180156113c757600080fd5b506040519080825280602002602001820160405280156113f1578160200160208202803683370190505b509050308160008151811061140257fe5b60200260200101906001600160a01b031690816001600160a01b03168152505060005b84518110156114715784818151811061143a57fe5b602002602001015182826001018151811061145157fe5b6001600160a01b0390921660209283029190910190910152600101611425565b506060835160010167ffffffffffffffff8111801561148f57600080fd5b506040519080825280602002602001820160405280156114b9578160200160208202803683370190505b5090506000816000815181106114cb57fe5b60200260200101906001600160a01b031690816001600160a01b03168152505060005b845181101561153a5784818151811061150357fe5b602002602001015182826001018151811061151a57fe5b6001600160a01b03909216602092830291909101909101526001016114ee565b50611547878784846123e5565b925050505b949350505050565b60008282016108d284821015836115b9565b60006115768383111560016115b9565b50900390565b80611586816124ee565b5050565b6000611597848484612567565b506001901b60001901811b1992909216911b1790565b80820390821102900390565b8161158657611586816125ad565b61099c6115d2611767565b6101926115b9565b60006115f66003841080156115ef5750600383105b60646115b9565b6060611600610755565b905061160c8582611dfb565b600080611617610a6b565b91509150611623613921565b6040518060600160405280611636610a3a565b815260208101859052604001839052905060008951600181111561165657fe5b14156116ba5761167d896060015185898151811061167057fe5b60200260200101516125d7565b60608a0152600061168f8a8a846125e3565b90506116ae818689815181106116a157fe5b60200260200101516126aa565b9550505050505061154c565b6116ce896060015185888151811061167057fe5b60608a015260006116e08a8a846126b6565b90506116ae81868a815181106116f257fe5b602002602001015161276b565b6001600160a01b0380841660008181526001602090815260408083209487168084529490915290819020849055517f8c5be1e5ebec7d5bd14f71427d1e84f3dd0314c0f7b2291e5b200ac8c7c3b9259061175a9085906141a1565b60405180910390a3505050565b60006117716117a8565b4211806108ec57505060075460ff161590565b7f000000000000000000000000000000000000000000000000000000000000000090565b7f000000000000000000000000000000000000000000000000000000000000000090565b6000806117d7611371565b90506000816001600160a01b03166307a2d13a670de0b6b3a76400006040518263ffffffff1660e01b815260040161180f91906141a1565b60206040518083038186803b15801561182757600080fd5b505afa15801561183b573d6000803e3d6000fd5b505050506040513d601f19601f8201168201806040525081019061185f9190613d9b565b9050600061189f670de0b6b3a7640000611899847f0000000000000000000000000000000000000000000000000000000000000000612777565b90612791565b935050505090565b60008282026118cb8415806118c45750838583816118c157fe5b04145b60036115b9565b670de0b6b3a7640000815b04949350505050565b6118f66001600160a01b03841615156101986115b9565b61190d6001600160a01b03831615156101996115b9565b611918838383610926565b6001600160a01b03831660009081526020819052604090205461193e90826101a06127b1565b6001600160a01b03808516600090815260208190526040808220939093559084168152205461196d9082611554565b6001600160a01b0380841660008181526020819052604090819020939093559151908516907fddf252ad1be2c89b69c2b068fc378daa952ba7f163c4a11628f55a4df523b3ef9061175a9085906141a1565b60006119ee6000357fffffffff0000000000000000000000000000000000000000000000000000000016610edc565b9050611a056119fd82336127c7565b6101916115b9565b50565b6000806000611a15610f52565b6001600160a01b031663b05f8e48611a2b61092b565b7f00000000000000000000000000000000000000000000000000000000000000006040518363ffffffff1660e01b8152600401611a6992919061439c565b60806040518083038186803b158015611a8157600080fd5b505afa158015611a95573d6000803e3d6000fd5b505050506040513d601f19601f82011682018060405250810190611ab99190613fa8565b5050915091506000611af5828401611af07f00000000000000000000000000000000000000000000000000000000000000006128b0565b6125d7565b905085811015801561064b57509390931115949350505050565b611b2264e8d4a5100082101560cb6115b9565b611b3867016345785d8a000082111560ca6115b9565b600854611b49908260c0603f61158a565b6008556040517fa9ba3ffe0b6c366b81232caab38605a0699ad5398d6cce76f91ee809e322dafc90611b7c9083906141a1565b60405180910390a150565b8015611ba757611ba2611b98611784565b42106101936115b9565b611bbc565b611bbc611bb26117a8565b42106101a96115b9565b600780547fffffffffffffffffffffffffffffffffffffffffffffffffffffffffffffff00168215151790556040517f9e3a5e37224532dea67b89face185703738a228a6e8a23dee546960180d3be6490611b7c90839061417e565b61099c611c236110ea565b156101b56115b9565b600854611c3b908260ff61298a565b6008556040517feff3d4d215b42bf0960be9c6d5e05c22cba4df6627a3a523e2acee733b5854c890611b7c90839061417e565b6001901b6000190191901c1690565b60006060611c8c6103e66125ad565b935093915050565b333014611d83576000306001600160a01b0316600036604051611cb89291906140ec565b6000604051808303816000865af19150503d8060008114611cf5576040519150601f19603f3d011682016040523d82523d6000602084013e611cfa565b606091505b505090508060008114611d0957fe5b60046000803e6000517fffffffff00000000000000000000000000000000000000000000000000000000167f43adbafb000000000000000000000000000000000000000000000000000000008114611d65573d6000803e3d6000fd5b506020600460003e604060205260243d03602460403e601c3d016000f35b60006060611d968686868663ffffffff16565b8051601f1982018390526343adbafb7fffffffffffffffffffffffffffffffffffffffffffffffffffffffffffffffc083015291935091506020027fffffffffffffffffffffffffffffffffffffffffffffffffffffffffffffffdc82016044820181fd5b81518151611e0a908290612999565b60005b8181101561108f57611e45848281518110611e2457fe5b6020026020010151848381518110611e3857fe5b60200260200101516118a7565b848281518110611e5157fe5b6020908102919091010152600101611e0d565b60008160200151831015611e9d5781516020830151600091611e8991869003906118a7565b9050611e958482611566565b9150506106fc565b81604001518311611eaf5750816106fc565b81516040830151600091611e89918603906118a7565b60006108d28383611554565b60006106fc82611edf610726565b90611566565b6000611ef482151560046115b9565b670de0b6b3a76400008302611f26841580611f1f5750670de0b6b3a7640000858381611f1c57fe5b04145b60056115b9565b6001836001830304018115150291505092915050565b60008082511180156106fc575060ff801682806020019051810190611f619190613fe8565b60ff161492915050565b61099c611f766110ea565b6101b66115b9565b600060606000611f8d846129a6565b90506060865167ffffffffffffffff81118015611fa957600080fd5b50604051908082528060200260200182016040528015611fd3578160200160208202803683370190505b5090506000611fe0610ec5565b90506000611ff3898381518110610c1f57fe5b9050600061200185836129bc565b905060005b8a51811015612063578381141561201e576000612044565b612044828c838151811061202e57fe5b60200260200101516118a790919063ffffffff16565b85828151811061205057fe5b6020908102919091010152600101612006565b509399929850919650505050505050565b61158682826129fc565b90565b60006108d26103e66125ad565b61209d8183111561014c6115b9565b6120b86b0de0b6b39983494c589c000082111561014d6115b9565b6120d0670de0b6b3a7640000825b06156101616115b9565b6120e2670de0b6b3a7640000836120c6565b612117670de0b6b3a764000082046040602061210f670de0b6b3a76400008760085491900460208061158a565b92919061158a565b6008556040516001600160a01b038416907fd0e27a0d0c2cb09280fa5e4487315455b32afcdcf012dc35b6ef2a0e3c4d1280906121579085908590614411565b60405180910390a2505050565b600061216e610f52565b6001600160a01b031663aaabadc56040518163ffffffff1660e01b815260040160206040518083038186803b1580156121a657600080fd5b505afa1580156121ba573d6000803e3d6000fd5b505050506040513d601f19601f820116820180604052508101906108ec9190613e96565b1c60011690565b60408051604180825260808201909252606091829190602082018180368337019050509050836020820152826040820152846060820153949350505050565b600061222f85612ac8565b905061224561223f878387612ae4565b836115b9565b612254428410156101b86115b9565b5050506001600160a01b039092166000908152600660205260409020805460010190555050565b600060606122966001600160a01b03861630146101566115b9565b6122ad6001600160a01b03851630146101566115b9565b604080516003808252608082019092526dffffffffffffffffffffffffffff91606091906020820183803683370190505090506dffffffffffffffffffffffffffff816000815181106122fc57fe5b602090810291909101015290969095509350505050565b6115868282612b93565b6001600160a01b03918216600090815260016020908152604080832093909416825291909152205490565b60007f00000000000000000000000000000000000000000000000000000000000000007f00000000000000000000000000000000000000000000000000000000000000007f00000000000000000000000000000000000000000000000000000000000000006123b5612c26565b306040516020016123ca959493929190614370565b60405160208183030381529060405280519060200120905090565b600080856001600160a01b03166309b2760f866040518263ffffffff1660e01b815260040161241491906143d1565b602060405180830381600087803b15801561242e57600080fd5b505af1158015612442573d6000803e3d6000fd5b505050506040513d601f19601f820116820180604052508101906124669190613d9b565b6040517f66a9c7d20000000000000000000000000000000000000000000000000000000081529091506001600160a01b038716906366a9c7d2906124b2908490889088906004016142ea565b600060405180830381600087803b1580156124cc57600080fd5b505af11580156124e0573d6000803e3d6000fd5b509298975050505050505050565b6002815110156124fd57611a05565b60008160008151811061250c57fe5b602002602001015190506000600190505b825181101561092657600083828151811061253457fe5b6020026020010151905061255d816001600160a01b0316846001600160a01b03161060656115b9565b915060010161251d565b612576610100831060646115b9565b61259e600182101580156115ef575061259460ff84610100036115ad565b82111560646115b9565b61092683821c156101b46115b9565b611a05817f42414c0000000000000000000000000000000000000000000000000000000000612c2a565b60006108d283836118a7565b60208301516000906001600160a01b031630141561260d57612606848484612ca5565b90506108d2565b7f00000000000000000000000000000000000000000000000000000000000000006001600160a01b031684602001516001600160a01b0316141561265657612606848484612dfd565b7f00000000000000000000000000000000000000000000000000000000000000006001600160a01b031684602001516001600160a01b0316141561269f57612606848484612f3a565b6108d26101356125ad565b60006108d283836129bc565b60408301516000906001600160a01b03163014156126d957612606848484613072565b7f00000000000000000000000000000000000000000000000000000000000000006001600160a01b031684604001516001600160a01b03161415612722576126068484846131c2565b7f00000000000000000000000000000000000000000000000000000000000000006001600160a01b031684604001516001600160a01b0316141561269f576126068484846132fa565b60006108d28383611ee5565b60008282026108d28415806118c45750838583816118c157fe5b60006127a082151560046115b9565b8183816127a957fe5b049392505050565b60006127c084841115836115b9565b5050900390565b600073ba1ba1ba1ba1ba1ba1ba1ba1ba1ba1ba1ba1ba1b6127e6610f2e565b6001600160a01b031614158015612801575061280183613432565b156128295761280e610f2e565b6001600160a01b0316336001600160a01b03161490506106fc565b612831612164565b6001600160a01b0316639be2a8848484306040518463ffffffff1660e01b8152600401612860939291906141aa565b60206040518083038186803b15801561287857600080fd5b505afa15801561288c573d6000803e3d6000fd5b505050506040513d601f19601f820116820180604052508101906112b79190613d7b565b60007f00000000000000000000000000000000000000000000000000000000000000006001600160a01b0316826001600160a01b0316141561291357507f0000000000000000000000000000000000000000000000000000000000000000610c58565b7f00000000000000000000000000000000000000000000000000000000000000006001600160a01b0316826001600160a01b0316141561295f576129586107de6117cc565b9050610c58565b6001600160a01b03821630141561297f5750670de0b6b3a7640000610c58565b610c586101356125ad565b6001811b1992909216911b1790565b61158681831460676115b9565b6000818060200190518101906108d29190614004565b60006129cb82151560046115b9565b670de0b6b3a764000083026129f3841580611f1f5750670de0b6b3a7640000858381611f1c57fe5b8281816118d657fe5b612a136001600160a01b038316151561019b6115b9565b612a1f82600083610926565b6001600160a01b038216600090815260208190526040902054612a4590826101b26127b1565b6001600160a01b038316600090815260208190526040902055612a78612a7382612a6d610726565b90613496565b6134a4565b60006001600160a01b0316826001600160a01b03167fddf252ad1be2c89b69c2b068fc378daa952ba7f163c4a11628f55a4df523b3ef83604051612abc91906141a1565b60405180910390a35050565b6000612ad2612348565b82604051602001610f119291906140fc565b6000612af682516041146101b96115b9565b60208281015160408085015160608601518251600080825295019283905292939092811a91600190612b2f9089908590889088906143b3565b6020604051602081039080840390855afa158015612b51573d6000803e3d6000fd5b5050604051601f1901519150506001600160a01b03811615801590612b875750876001600160a01b0316816001600160a01b0316145b98975050505050505050565b612b9f60008383610926565b612bb4612a7382612bae610726565b90611554565b6001600160a01b038216600090815260208190526040902054612bd79082611554565b6001600160a01b0383166000818152602081905260408082209390935591519091907fddf252ad1be2c89b69c2b068fc378daa952ba7f163c4a11628f55a4df523b3ef90612abc9085906141a1565b4690565b7f08c379a000000000000000000000000000000000000000000000000000000000600090815260206004526007602452600a808404818106603090810160081b958390069590950190829004918206850160101b01602363ffffff0060e086901c160160181b0190930160c81b60445260e882901c90606490fd5b6000612d2b7f00000000000000000000000000000000000000000000000000000000000000006001600160a01b031685604001516001600160a01b03161480612d2357507f00000000000000000000000000000000000000000000000000000000000000006001600160a01b031685604001516001600160a01b0316145b6101356115b9565b61154c8460600151847f000000000000000000000000000000000000000000000000000000000000000081518110612d5f57fe5b6020026020010151857f000000000000000000000000000000000000000000000000000000000000000081518110612d9357fe5b6020026020010151612dab87600081518110610c1f57fe5b867f00000000000000000000000000000000000000000000000000000000000000006001600160a01b03168a604001516001600160a01b031614612df1576134a9612df5565b6135075b63ffffffff16565b6000612e597f00000000000000000000000000000000000000000000000000000000000000006001600160a01b031685604001516001600160a01b03161480612d23575060408501516001600160a01b031630146101356115b9565b60408401516001600160a01b03163014612eb457612eaf8460600151847f000000000000000000000000000000000000000000000000000000000000000081518110612ea157fe5b602002602001015184613570565b61154c565b61154c8460600151847f000000000000000000000000000000000000000000000000000000000000000081518110612ee857fe5b6020026020010151857f000000000000000000000000000000000000000000000000000000000000000081518110612f1c57fe5b6020026020010151612f3487600081518110610c1f57fe5b866135a0565b6000612f967f00000000000000000000000000000000000000000000000000000000000000006001600160a01b031685604001516001600160a01b03161480612d23575060408501516001600160a01b031630146101356115b9565b60408401516001600160a01b03163014612fec57612eaf8460600151847f000000000000000000000000000000000000000000000000000000000000000081518110612fde57fe5b602002602001015184613606565b61154c8460600151847f00000000000000000000000000000000000000000000000000000000000000008151811061302057fe5b6020026020010151857f00000000000000000000000000000000000000000000000000000000000000008151811061305457fe5b602002602001015161306c87600081518110610c1f57fe5b86613646565b60006130f77f00000000000000000000000000000000000000000000000000000000000000006001600160a01b031685602001516001600160a01b03161480612d2357507f00000000000000000000000000000000000000000000000000000000000000006001600160a01b031685602001516001600160a01b0316146101356115b9565b61154c8460600151847f00000000000000000000000000000000000000000000000000000000000000008151811061312b57fe5b6020026020010151857f00000000000000000000000000000000000000000000000000000000000000008151811061315f57fe5b602002602001015161317787600081518110610c1f57fe5b867f00000000000000000000000000000000000000000000000000000000000000006001600160a01b03168a602001516001600160a01b0316146131bd576136ad612df5565b613704565b600061321e7f00000000000000000000000000000000000000000000000000000000000000006001600160a01b031685602001516001600160a01b03161480612d23575060208501516001600160a01b031630146101356115b9565b60208401516001600160a01b0316301461327457612eaf8460600151847f00000000000000000000000000000000000000000000000000000000000000008151811061326657fe5b60200260200101518461376e565b61154c8460600151847f0000000000000000000000000000000000000000000000000000000000000000815181106132a857fe5b6020026020010151857f0000000000000000000000000000000000000000000000000000000000000000815181106132dc57fe5b60200260200101516132f487600081518110610c1f57fe5b86613798565b60006133567f00000000000000000000000000000000000000000000000000000000000000006001600160a01b031685602001516001600160a01b03161480612d23575060208501516001600160a01b031630146101356115b9565b60208401516001600160a01b031630146133ac57612eaf8460600151847f00000000000000000000000000000000000000000000000000000000000000008151811061339e57fe5b6020026020010151846137e7565b61154c8460600151847f0000000000000000000000000000000000000000000000000000000000000000815181106133e057fe5b6020026020010151857f00000000000000000000000000000000000000000000000000000000000000008151811061341457fe5b602002602001015161342c87600081518110610c1f57fe5b8661381c565b600061345d7f9f11080e00000000000000000000000000000000000000000000000000000000610edc565b8214806106fc575061348e7f38e9922e00000000000000000000000000000000000000000000000000000000610edc565b909114919050565b60006108d2838360016127b1565b600255565b6000806134b68684611e64565b905060006134c48287611ec5565b905060006134d2868a611566565b905060006134ed84611edf6134e78587612777565b8a613870565b90506134f98882611566565b9a9950505050505050505050565b6000806135148684611e64565b905060006135228287611ec5565b90506000613539613533838b612777565b87612791565b905060006135478483611566565b905060006135558288613891565b90506135618a82611566565b9b9a5050505050505050505050565b60008061357d8484611e64565b9050600061359461358e8688611554565b85611e64565b905061064b8183611566565b6000826135b8576135b18683611e64565b9050611022565b60006135c48684611e64565b905060006135d561358e888a611554565b905060006135e38284611566565b905060006135f18489611ec5565b90506134f96136008884612777565b82612791565b6000806136138484611e64565b905060006136218287611566565b9050600061362f8286613891565b905061363b8682611566565b979650505050505050565b600082613654575084611022565b60006136608684611e64565b9050600061366e8287611ec5565b9050600061367c878a611554565b9050600061368a8483611ec5565b905060006136a161369b8984612777565b85612791565b90506135618189611566565b6000826136bb575084611022565b60006136c78684611e64565b905060006136d58287611ec5565b905060006136e3868a611554565b905060006136f884611edf6134e78587612777565b90506134f98189611566565b600082613715576135b18683613891565b60006137218684611e64565b9050600061372f8287611ec5565b90506000613746613740838b612777565b87613870565b905060006137548483611554565b905060006137628288613891565b9050613561818b611566565b60008061377b8484611e64565b9050600061378c61358e8688611566565b905061064b8282611566565b6000806137a58684611e64565b905060006137b661358e888a611566565b905060006137c48383611566565b905060006137d28489611ec5565b90506134f96137e18884612777565b82613870565b6000806137f48484611e64565b905060006138028287611554565b905060006138108286613891565b905061363b8187611566565b6000806138298684611e64565b905060006138378287611ec5565b90506000613845878a611566565b905060006138538483611ec5565b9050600061386461369b8984612777565b90506135618882611566565b600061387f82151560046115b9565b50811515600019909201046001010290565b600081602001518310156138da5781516112b7906138b890670de0b6b3a764000090611554565b602084015184516138d4916138cd91906118a7565b8690611554565b906129bc565b816040015183116138ec5750816106fc565b81516112b79061390590670de0b6b3a764000090611566565b604084015184516138d49161391a91906118a7565b8690611566565b60405180606001604052806000815260200160008152602001600081525090565b60405180608001604052806060815260200160608152602001606081526020016000151581525090565b80356106fc81614480565b600082601f830112613987578081fd5b813561399a61399582614454565b61442d565b8181529150602080830190848101818402860182018710156139bb57600080fd5b60005b848110156139da578135845292820192908201906001016139be565b505050505092915050565b600082601f8301126139f5578081fd5b8151613a0361399582614454565b818152915060208083019084810181840286018201871015613a2457600080fd5b60005b848110156139da57815184529282019290820190600101613a27565b600082601f830112613a53578081fd5b813567ffffffffffffffff811115613a69578182fd5b613a7c6020601f19601f8401160161442d565b9150808252836020828501011115613a9357600080fd5b8060208401602084013760009082016020015292915050565b8035600281106106fc57600080fd5b6000610120808385031215613ace578182fd5b613ad78161442d565b915050613ae48383613aac565b8152613af3836020840161396c565b6020820152613b05836040840161396c565b6040820152606082013560608201526080820135608082015260a082013560a0820152613b358360c0840161396c565b60c0820152613b478360e0840161396c565b60e08201526101008083013567ffffffffffffffff811115613b6857600080fd5b613b7485828601613a43565b82840152505092915050565b600060208284031215613b91578081fd5b81356108d281614480565b60008060408385031215613bae578081fd5b8235613bb981614480565b91506020830135613bc981614480565b809150509250929050565b600080600060608486031215613be8578081fd5b8335613bf381614480565b92506020840135613c0381614480565b929592945050506040919091013590565b600080600080600080600060e0888a031215613c2e578283fd5b8735613c3981614480565b96506020880135613c4981614480565b955060408801359450606088013593506080880135613c6781614495565b9699959850939692959460a0840135945060c09093013592915050565b60008060408385031215613c96578182fd5b8235613ca181614480565b946020939093013593505050565b600080600060608486031215613cc3578081fd5b835167ffffffffffffffff80821115613cda578283fd5b818601915086601f830112613ced578283fd5b8151613cfb61399582614454565b80828252602080830192508086018b828387028901011115613d1b578788fd5b8796505b84871015613d46578051613d3281614480565b845260019690960195928101928101613d1f565b508901519097509350505080821115613d5d578283fd5b50613d6a868287016139e5565b925050604084015190509250925092565b600060208284031215613d8c578081fd5b815180151581146108d2578182fd5b600060208284031215613dac578081fd5b5051919050565b600080600080600080600060e0888a031215613dcd578081fd5b873596506020880135613ddf81614480565b95506040880135613def81614480565b9450606088013567ffffffffffffffff80821115613e0b578283fd5b613e178b838c01613977565b955060808a0135945060a08a0135935060c08a0135915080821115613e3a578283fd5b50613e478a828b01613a43565b91505092959891949750929550565b600060208284031215613e67578081fd5b81357fffffffff00000000000000000000000000000000000000000000000000000000811681146108d2578182fd5b600060208284031215613ea7578081fd5b81516108d281614480565b60008060008060808587031215613ec7578182fd5b843567ffffffffffffffff80821115613ede578384fd5b613eea88838901613abb565b95506020870135915080821115613eff578384fd5b50613f0c87828801613977565b949794965050505060408301359260600135919050565b600080600060608486031215613f37578081fd5b833567ffffffffffffffff811115613f4d578182fd5b613f5986828701613abb565b9660208601359650604090950135949350505050565b600060208284031215613f80578081fd5b5035919050565b60008060408385031215613f99578182fd5b50508035926020909101359150565b60008060008060808587031215613fbd578182fd5b8451935060208501519250604085015191506060850151613fdd81614480565b939692955090935050565b600060208284031215613ff9578081fd5b81516108d281614495565b60008060408385031215614016578182fd5b825161402181614495565b6020939093015192949293505050565b6000815180845260208085019450808401835b8381101561406057815187529582019590820190600101614044565b509495945050505050565b15159052565b60008151808452815b818110156140965760208185018101518683018201520161407a565b818111156140a75782602083870101525b50601f01601f19169290920160200192915050565b9182527fffffffff0000000000000000000000000000000000000000000000000000000016602082015260240190565b6000828483379101908152919050565b7f190100000000000000000000000000000000000000000000000000000000000081526002810192909252602282015260420190565b6001600160a01b0391909116815260200190565b6000602082526108d26020830184614031565b60006040825261416c6040830185614031565b82810360208401526110228185614031565b901515815260200190565b92151583526020830191909152604082015260600190565b90815260200190565b9283526001600160a01b03918216602084015216604082015260600190565b600085825260206001600160a01b038087168285015280861660408501525060806060840152610100830184516080808601528181518084526101208701915084830193508592505b8083101561423a576142248451614474565b8252928401926001929092019190840190614212565b508387015193507fffffffffffffffffffffffffffffffffffffffffffffffffffffffffffffff809250828682030160a08701526142788185614031565b935050506040850151818584030160c08601526142958382614071565b9250505060608401516142ab60e085018261406b565b509695505050505050565b9586526001600160a01b0394851660208701529290931660408501526060840152608083019190915260a082015260c00190565b60006060820185835260206060818501528186518084526080860191508288019350845b81811015614332576143208551614474565b8352938301939183019160010161430e565b505084810360408601528551808252908201925081860190845b818110156124e05761435e8351614474565b8552938301939183019160010161434c565b9485526020850193909352604084019190915260608301526001600160a01b0316608082015260a00190565b9182526001600160a01b0316602082015260400190565b93845260ff9290921660208401526040830152606082015260800190565b60208101600383106143df57fe5b91905290565b6000602082526108d26020830184614071565b60008382526040602083015261154c6040830184614031565b918252602082015260400190565b60ff91909116815260200190565b60405181810167ffffffffffffffff8111828210171561444c57600080fd5b604052919050565b600067ffffffffffffffff82111561446a578081fd5b5060209081020190565b6001600160a01b031690565b6001600160a01b0381168114611a0557600080fd5b60ff81168114611a0557600080fdfea2646970667358221220d6d01cb61f20e695ebc6bf9c81ea495945024efb07a49a25feef0c6ae0d74cf564736f6c63430007010033",
  "linkReferences": {},
  "deployedLinkReferences": {}
}